{
  "_format": "hh-sol-artifact-1",
  "contractName": "VotingV1",
  "sourceName": "contracts/VotingV1.sol",
  "abi": [
    {
      "inputs": [],
      "stateMutability": "nonpayable",
      "type": "constructor"
    },
    {
      "anonymous": false,
      "inputs": [
        {
          "indexed": true,
          "internalType": "uint256",
          "name": "id",
          "type": "uint256"
        },
        {
          "indexed": false,
          "internalType": "string",
          "name": "name",
          "type": "string"
        }
      ],
      "name": "CandidateAdded",
      "type": "event"
    },
    {
      "anonymous": false,
      "inputs": [
        {
          "indexed": true,
          "internalType": "address",
          "name": "voter",
          "type": "address"
        },
        {
          "indexed": true,
          "internalType": "uint256",
          "name": "candidateId",
          "type": "uint256"
        }
      ],
      "name": "Voted",
      "type": "event"
    },
    {
      "inputs": [
        {
          "internalType": "string",
          "name": "_name",
          "type": "string"
        }
      ],
      "name": "addCandidate",
      "outputs": [],
      "stateMutability": "nonpayable",
      "type": "function"
    },
    {
      "inputs": [
        {
          "internalType": "uint256",
          "name": "",
          "type": "uint256"
        }
      ],
      "name": "candidates",
      "outputs": [
        {
          "internalType": "uint256",
          "name": "id",
          "type": "uint256"
        },
        {
          "internalType": "string",
          "name": "name",
          "type": "string"
        },
        {
          "internalType": "uint256",
          "name": "voteCount",
          "type": "uint256"
        }
      ],
      "stateMutability": "view",
      "type": "function"
    },
    {
      "inputs": [],
      "name": "getAllCandidates",
      "outputs": [
        {
          "components": [
            {
              "internalType": "uint256",
              "name": "id",
              "type": "uint256"
            },
            {
              "internalType": "string",
              "name": "name",
              "type": "string"
            },
            {
              "internalType": "uint256",
              "name": "voteCount",
              "type": "uint256"
            }
          ],
          "internalType": "struct VotingV1.Candidate[]",
          "name": "",
          "type": "tuple[]"
        }
      ],
      "stateMutability": "view",
      "type": "function"
    },
    {
      "inputs": [],
      "name": "getCandidatesCount",
      "outputs": [
        {
          "internalType": "uint256",
          "name": "",
          "type": "uint256"
        }
      ],
      "stateMutability": "view",
      "type": "function"
    },
    {
      "inputs": [
        {
          "internalType": "address",
          "name": "",
          "type": "address"
        }
      ],
      "name": "hasVoted",
      "outputs": [
        {
          "internalType": "bool",
          "name": "",
          "type": "bool"
        }
      ],
      "stateMutability": "view",
      "type": "function"
    },
    {
      "inputs": [],
      "name": "owner",
      "outputs": [
        {
          "internalType": "address",
          "name": "",
          "type": "address"
        }
      ],
      "stateMutability": "view",
      "type": "function"
    },
    {
      "inputs": [
        {
          "internalType": "uint256",
          "name": "_candidateId",
          "type": "uint256"
        }
      ],
      "name": "vote",
      "outputs": [],
      "stateMutability": "nonpayable",
      "type": "function"
    }
  ],
  "bytecode": "0x6080604052348015600f57600080fd5b50336000806101000a81548173ffffffffffffffffffffffffffffffffffffffff021916908373ffffffffffffffffffffffffffffffffffffffff16021790555061112e8061005f6000396000f3fe608060405234801561001057600080fd5b506004361061007d5760003560e01c80633477ee2e1161005b5780633477ee2e146100ec578063462e91ec1461011e5780638da5cb5b1461013a578063bb9aa28f146101585761007d565b80630121b93f1461008257806309eef43e1461009e5780632e6997fe146100ce575b600080fd5b61009c600480360381019061009791906106cd565b610176565b005b6100b860048036038101906100b39190610758565b610324565b6040516100c591906107a0565b60405180910390f35b6100d6610344565b6040516100e3919061096c565b60405180910390f35b610106600480360381019061010191906106cd565b610449565b604051610115939291906109e7565b60405180910390f35b61013860048036038101906101339190610b5a565b61050b565b005b610142610652565b60405161014f9190610bb2565b60405180910390f35b610160610676565b60405161016d9190610bcd565b60405180910390f35b600260003373ffffffffffffffffffffffffffffffffffffffff1673ffffffffffffffffffffffffffffffffffffffff16815260200190815260200160002060009054906101000a900460ff1615610203576040517f08c379a00000000000000000000000000000000000000000000000000000000081526004016101fa90610c34565b60405180910390fd5b600180549050811061024a576040517f08c379a000000000000000000000000000000000000000000000000000000000815260040161024190610ca0565b60405180910390fd5b6001600260003373ffffffffffffffffffffffffffffffffffffffff1673ffffffffffffffffffffffffffffffffffffffff16815260200190815260200160002060006101000a81548160ff021916908315150217905550600181815481106102b6576102b5610cc0565b5b906000526020600020906003020160020160008154809291906102d890610d1e565b9190505550803373ffffffffffffffffffffffffffffffffffffffff167f4d99b957a2bc29a30ebd96a7be8e68fe50a3c701db28a91436490b7d53870ca460405160405180910390a350565b60026020528060005260406000206000915054906101000a900460ff1681565b60606001805480602002602001604051908101604052809291908181526020016000905b828210156104405783829060005260206000209060030201604051806060016040529081600082015481526020016001820180546103a590610d95565b80601f01602080910402602001604051908101604052809291908181526020018280546103d190610d95565b801561041e5780601f106103f35761010080835404028352916020019161041e565b820191906000526020600020905b81548152906001019060200180831161040157829003601f168201915b5050505050815260200160028201548152505081526020019060010190610368565b50505050905090565b6001818154811061045957600080fd5b906000526020600020906003020160009150905080600001549080600101805461048290610d95565b80601f01602080910402602001604051908101604052809291908181526020018280546104ae90610d95565b80156104fb5780601f106104d0576101008083540402835291602001916104fb565b820191906000526020600020905b8154815290600101906020018083116104de57829003601f168201915b5050505050908060020154905083565b60008054906101000a900473ffffffffffffffffffffffffffffffffffffffff1673ffffffffffffffffffffffffffffffffffffffff163373ffffffffffffffffffffffffffffffffffffffff1614610599576040517f08c379a000000000000000000000000000000000000000000000000000000000815260040161059090610e38565b60405180910390fd5b6000600180549050905060016040518060600160405280838152602001848152602001600081525090806001815401808255809150506001900390600052602060002090600302016000909190919091506000820151816000015560208201518160010190816106099190611004565b50604082015181600201555050807fe83b2a43e7e82d975c8a0a6d2f045153c869e111136a34d1889ab7b598e396a38360405161064691906110d6565b60405180910390a25050565b60008054906101000a900473ffffffffffffffffffffffffffffffffffffffff1681565b6000600180549050905090565b6000604051905090565b600080fd5b600080fd5b6000819050919050565b6106aa81610697565b81146106b557600080fd5b50565b6000813590506106c7816106a1565b92915050565b6000602082840312156106e3576106e261068d565b5b60006106f1848285016106b8565b91505092915050565b600073ffffffffffffffffffffffffffffffffffffffff82169050919050565b6000610725826106fa565b9050919050565b6107358161071a565b811461074057600080fd5b50565b6000813590506107528161072c565b92915050565b60006020828403121561076e5761076d61068d565b5b600061077c84828501610743565b91505092915050565b60008115159050919050565b61079a81610785565b82525050565b60006020820190506107b56000830184610791565b92915050565b600081519050919050565b600082825260208201905092915050565b6000819050602082019050919050565b6107f081610697565b82525050565b600081519050919050565b600082825260208201905092915050565b60005b83811015610830578082015181840152602081019050610815565b60008484015250505050565b6000601f19601f8301169050919050565b6000610858826107f6565b6108628185610801565b9350610872818560208601610812565b61087b8161083c565b840191505092915050565b600060608301600083015161089e60008601826107e7565b50602083015184820360208601526108b6828261084d565b91505060408301516108cb60408601826107e7565b508091505092915050565b60006108e28383610886565b905092915050565b6000602082019050919050565b6000610902826107bb565b61090c81856107c6565b93508360208202850161091e856107d7565b8060005b8581101561095a578484038952815161093b85826108d6565b9450610946836108ea565b925060208a01995050600181019050610922565b50829750879550505050505092915050565b6000602082019050818103600083015261098681846108f7565b905092915050565b61099781610697565b82525050565b600082825260208201905092915050565b60006109b9826107f6565b6109c3818561099d565b93506109d3818560208601610812565b6109dc8161083c565b840191505092915050565b60006060820190506109fc600083018661098e565b8181036020830152610a0e81856109ae565b9050610a1d604083018461098e565b949350505050565b600080fd5b600080fd5b7f4e487b7100000000000000000000000000000000000000000000000000000000600052604160045260246000fd5b610a678261083c565b810181811067ffffffffffffffff82111715610a8657610a85610a2f565b5b80604052505050565b6000610a99610683565b9050610aa58282610a5e565b919050565b600067ffffffffffffffff821115610ac557610ac4610a2f565b5b610ace8261083c565b9050602081019050919050565b82818337600083830152505050565b6000610afd610af884610aaa565b610a8f565b905082815260208101848484011115610b1957610b18610a2a565b5b610b24848285610adb565b509392505050565b600082601f830112610b4157610b40610a25565b5b8135610b51848260208601610aea565b91505092915050565b600060208284031215610b7057610b6f61068d565b5b600082013567ffffffffffffffff811115610b8e57610b8d610692565b5b610b9a84828501610b2c565b91505092915050565b610bac8161071a565b82525050565b6000602082019050610bc76000830184610ba3565b92915050565b6000602082019050610be2600083018461098e565b92915050565b7f596f75206861766520616c726561647920766f7465642e000000000000000000600082015250565b6000610c1e60178361099d565b9150610c2982610be8565b602082019050919050565b60006020820190508181036000830152610c4d81610c11565b9050919050565b7f496e76616c69642063616e6469646174652049442e0000000000000000000000600082015250565b6000610c8a60158361099d565b9150610c9582610c54565b602082019050919050565b60006020820190508181036000830152610cb981610c7d565b9050919050565b7f4e487b7100000000000000000000000000000000000000000000000000000000600052603260045260246000fd5b7f4e487b7100000000000000000000000000000000000000000000000000000000600052601160045260246000fd5b6000610d2982610697565b91507fffffffffffffffffffffffffffffffffffffffffffffffffffffffffffffffff8203610d5b57610d5a610cef565b5b600182019050919050565b7f4e487b7100000000000000000000000000000000000000000000000000000000600052602260045260246000fd5b60006002820490506001821680610dad57607f821691505b602082108103610dc057610dbf610d66565b5b50919050565b7f4f6e6c79206f776e65722063616e20706572666f726d2074686973206163746960008201527f6f6e000000000000000000000000000000000000000000000000000000000000602082015250565b6000610e2260228361099d565b9150610e2d82610dc6565b604082019050919050565b60006020820190508181036000830152610e5181610e15565b9050919050565b60008190508160005260206000209050919050565b60006020601f8301049050919050565b600082821b905092915050565b600060088302610eba7fffffffffffffffffffffffffffffffffffffffffffffffffffffffffffffffff82610e7d565b610ec48683610e7d565b95508019841693508086168417925050509392505050565b6000819050919050565b6000610f01610efc610ef784610697565b610edc565b610697565b9050919050565b6000819050919050565b610f1b83610ee6565b610f2f610f2782610f08565b848454610e8a565b825550505050565b600090565b610f44610f37565b610f4f818484610f12565b505050565b5b81811015610f7357610f68600082610f3c565b600181019050610f55565b5050565b601f821115610fb857610f8981610e58565b610f9284610e6d565b81016020851015610fa1578190505b610fb5610fad85610e6d565b830182610f54565b50505b505050565b600082821c905092915050565b6000610fdb60001984600802610fbd565b1980831691505092915050565b6000610ff48383610fca565b9150826002028217905092915050565b61100d826107f6565b67ffffffffffffffff81111561102657611025610a2f565b5b6110308254610d95565b61103b828285610f77565b600060209050601f83116001811461106e576000841561105c578287015190505b6110668582610fe8565b8655506110ce565b601f19841661107c86610e58565b60005b828110156110a45784890151825560018201915060208501945060208101905061107f565b868310156110c157848901516110bd601f891682610fca565b8355505b6001600288020188555050505b505050505050565b600060208201905081810360008301526110f081846109ae565b90509291505056fea2646970667358221220baeeb636d3ccf601524bdbbad655ae53dfa5b276b8e2ce8cab66783ed0f6921c64736f6c634300081c0033",
  "linkReferences": {},
  "deployedLinkReferences": {}
}